{
  "_format": "hh-sol-artifact-1",
  "contractName": "TestTorchPredictionMarket",
  "sourceName": "contracts/TestTorchPredictionMarket.sol",
  "abi": [
    {
      "inputs": [],
      "stateMutability": "nonpayable",
      "type": "constructor"
    },
    {
      "anonymous": false,
      "inputs": [
        {
          "indexed": true,
          "internalType": "uint256",
          "name": "betId",
          "type": "uint256"
        },
        {
          "indexed": true,
          "internalType": "address",
          "name": "bettor",
          "type": "address"
        },
        {
          "indexed": false,
          "internalType": "uint256",
          "name": "bucket",
          "type": "uint256"
        },
        {
          "indexed": false,
          "internalType": "uint256",
          "name": "stake",
          "type": "uint256"
        },
        {
          "indexed": false,
          "internalType": "uint256",
          "name": "quality",
          "type": "uint256"
        }
      ],
      "name": "BetPlaced",
      "type": "event"
    },
    {
      "anonymous": false,
      "inputs": [
        {
          "indexed": false,
          "internalType": "uint256",
          "name": "amount",
          "type": "uint256"
        }
      ],
      "name": "FeeCollected",
      "type": "event"
    },
    {
      "inputs": [],
      "name": "BPS_DENOM",
      "outputs": [
        {
          "internalType": "uint256",
          "name": "",
          "type": "uint256"
        }
      ],
      "stateMutability": "view",
      "type": "function"
    },
    {
      "inputs": [],
      "name": "FEE_BPS",
      "outputs": [
        {
          "internalType": "uint256",
          "name": "",
          "type": "uint256"
        }
      ],
      "stateMutability": "view",
      "type": "function"
    },
    {
      "inputs": [],
      "name": "SECONDS_PER_DAY",
      "outputs": [
        {
          "internalType": "uint256",
          "name": "",
          "type": "uint256"
        }
      ],
      "stateMutability": "view",
      "type": "function"
    },
    {
      "inputs": [
        {
          "internalType": "uint256",
          "name": "",
          "type": "uint256"
        }
      ],
      "name": "bets",
      "outputs": [
        {
          "internalType": "address",
          "name": "bettor",
          "type": "address"
        },
        {
          "internalType": "uint256",
          "name": "targetTimestamp",
          "type": "uint256"
        },
        {
          "internalType": "uint256",
          "name": "priceMin",
          "type": "uint256"
        },
        {
          "internalType": "uint256",
          "name": "priceMax",
          "type": "uint256"
        },
        {
          "internalType": "uint256",
          "name": "stake",
          "type": "uint256"
        },
        {
          "internalType": "uint256",
          "name": "quality",
          "type": "uint256"
        },
        {
          "internalType": "uint256",
          "name": "weight",
          "type": "uint256"
        },
        {
          "internalType": "bool",
          "name": "finalized",
          "type": "bool"
        },
        {
          "internalType": "bool",
          "name": "claimed",
          "type": "bool"
        }
      ],
      "stateMutability": "view",
      "type": "function"
    },
    {
      "inputs": [
        {
          "internalType": "uint256",
          "name": "targetTs",
          "type": "uint256"
        }
      ],
      "name": "bucketIndex",
      "outputs": [
        {
          "internalType": "uint256",
          "name": "",
          "type": "uint256"
        }
      ],
      "stateMutability": "view",
      "type": "function"
    },
    {
      "inputs": [],
      "name": "nextBetId",
      "outputs": [
        {
          "internalType": "uint256",
          "name": "",
          "type": "uint256"
        }
      ],
      "stateMutability": "view",
      "type": "function"
    },
    {
      "inputs": [
        {
          "internalType": "uint256",
          "name": "targetTimestamp",
          "type": "uint256"
        },
        {
          "internalType": "uint256",
          "name": "priceMin",
          "type": "uint256"
        },
        {
          "internalType": "uint256",
          "name": "priceMax",
          "type": "uint256"
        }
      ],
      "name": "placeBet",
      "outputs": [
        {
          "internalType": "uint256",
          "name": "",
          "type": "uint256"
        }
      ],
      "stateMutability": "payable",
      "type": "function"
    },
    {
      "inputs": [],
      "name": "startTimestamp",
      "outputs": [
        {
          "internalType": "uint256",
          "name": "",
          "type": "uint256"
        }
      ],
      "stateMutability": "view",
      "type": "function"
    },
    {
      "inputs": [
        {
          "internalType": "uint256",
          "name": "",
          "type": "uint256"
        }
      ],
      "name": "totalStakedInBucket",
      "outputs": [
        {
          "internalType": "uint256",
          "name": "",
          "type": "uint256"
        }
      ],
      "stateMutability": "view",
      "type": "function"
    },
    {
      "inputs": [
        {
          "internalType": "uint256",
          "name": "",
          "type": "uint256"
        }
      ],
      "name": "totalWeightInBucket",
      "outputs": [
        {
          "internalType": "uint256",
          "name": "",
          "type": "uint256"
        }
      ],
      "stateMutability": "view",
      "type": "function"
    }
  ],
  "bytecode": "0x60a060405234801561001057600080fd5b504260805260805161075f61003e600039600081816102260152818161028c0152610308015261075f6000f3fe6080604052600436106100915760003560e01c80639aca2792116100595780639aca2792146101e9578063bf333f2c146101ff578063e6fd48bc14610214578063e71c969714610248578063f351ca941461025b57600080fd5b806322af00fa146100965780636637e38c1461016157806374f0314f146101855780637e8c5f141461019c5780638596b3ef146101bc575b600080fd5b3480156100a257600080fd5b5061010a6100b1366004610643565b600060208190529081526040902080546001820154600283015460038401546004850154600586015460068701546007909701546001600160a01b03909616969495939492939192909160ff8082169161010090041689565b604080516001600160a01b03909a168a5260208a0198909852968801959095526060870193909352608086019190915260a085015260c0840152151560e08301521515610100820152610120015b60405180910390f35b34801561016d57600080fd5b5061017761271081565b604051908152602001610158565b34801561019157600080fd5b506101776201518081565b3480156101a857600080fd5b506101776101b7366004610643565b610288565b3480156101c857600080fd5b506101776101d7366004610643565b60026020526000908152604090205481565b3480156101f557600080fd5b5061017760015481565b34801561020b57600080fd5b50610177603281565b34801561022057600080fd5b506101777f000000000000000000000000000000000000000000000000000000000000000081565b61017761025636600461065c565b61033d565b34801561026757600080fd5b50610177610276366004610643565b60036020526000908152604090205481565b60007f00000000000000000000000000000000000000000000000000000000000000008210156102ff5760405162461bcd60e51b815260206004820152601960248201527f6d757374206265203e3d20737461727454696d657374616d700000000000000060448201526064015b60405180910390fd5b6201518061032d7f00000000000000000000000000000000000000000000000000000000000000008461069e565b61033791906106b5565b92915050565b600042841161038e5760405162461bcd60e51b815260206004820152601860248201527f6d757374206265206675747572652074696d657374616d70000000000000000060448201526064016102f6565b8183106103dd5760405162461bcd60e51b815260206004820152601360248201527f696e76616c69642070726963652072616e67650000000000000000000000000060448201526064016102f6565b6000341161042d5760405162461bcd60e51b815260206004820152601160248201527f7374616b65206d757374206265203e203000000000000000000000000000000060448201526064016102f6565b600061271061043d6032346106d7565b61044791906106b5565b90506000610455823461069e565b90507fc472cb3a7a659a876494d66b3063145f279701771d6150b9329c31611ed6405c8260405161048891815260200190565b60405180910390a16001600061049e82846106d7565b905060006104ab89610288565b9050836002600083815260200190815260200160002060008282546104d091906106f6565b9091555050600081815260036020526040812080548492906104f39084906106f6565b909155505060018054600091826105098361070e565b9091555060408051610120810182523380825260208083018f81528385018f8152606085018f8152608086018d815260a087018d815260c088018d8152600060e08a01818152610100808c018381528e845299839052918c90209a518b546001600160a01b039190911673ffffffffffffffffffffffffffffffffffffffff19909116178b55965160018b0155945160028a015592516003890155905160048801555160058701555160068601559051600790940180549251151590910261ff00199415159490941661ffff19909216919091179290921790915590519192509082907fab2115bac1de808eb7fe2be0309085b11f1f42b1eb980de8352efefdbfc098e29061062e9086908a908a909283526020830191909152604082015260600190565b60405180910390a39998505050505050505050565b60006020828403121561065557600080fd5b5035919050565b60008060006060848603121561067157600080fd5b505081359360208301359350604090920135919050565b634e487b7160e01b600052601160045260246000fd5b6000828210156106b0576106b0610688565b500390565b6000826106d257634e487b7160e01b600052601260045260246000fd5b500490565b60008160001904831182151516156106f1576106f1610688565b500290565b6000821982111561070957610709610688565b500190565b600060001982141561072257610722610688565b506001019056fea2646970667358221220c212d069497b6b7f5d4562584dd644aa58449164499d9c943435a61587b5447164736f6c63430008090033",
  "linkReferences": {},
  "deployedLinkReferences": {}
}