{"abi":[{"type":"constructor","inputs":[],"stateMutability":"nonpayable"},{"type":"function","name":"BATCH_SIZE","inputs":[],"outputs":[{"name":"","type":"uint256","internalType":"uint256"}],"stateMutability":"view"},{"type":"function","name":"BPS_DENOM","inputs":[],"outputs":[{"name":"","type":"uint256","internalType":"uint256"}],"stateMutability":"view"},{"type":"function","name":"FEE_BPS","inputs":[],"outputs":[{"name":"","type":"uint256","internalType":"uint256"}],"stateMutability":"view"},{"type":"function","name":"MAX_DAYS_AHEAD","inputs":[],"outputs":[{"name":"","type":"uint256","internalType":"uint256"}],"stateMutability":"view"},{"type":"function","name":"MAX_STAKE","inputs":[],"outputs":[{"name":"","type":"uint256","internalType":"uint256"}],"stateMutability":"view"},{"type":"function","name":"MIN_DAYS_AHEAD","inputs":[],"outputs":[{"name":"","type":"uint256","internalType":"uint256"}],"stateMutability":"view"},{"type":"function","name":"MIN_STAKE","inputs":[],"outputs":[{"name":"","type":"uint256","internalType":"uint256"}],"stateMutability":"view"},{"type":"function","name":"SECONDS_PER_DAY","inputs":[],"outputs":[{"name":"","type":"uint256","internalType":"uint256"}],"stateMutability":"view"},{"type":"function","name":"arePricesSetForBucket","inputs":[{"name":"bucket","type":"uint256","internalType":"uint256"}],"outputs":[{"name":"","type":"bool","internalType":"bool"}],"stateMutability":"view"},{"type":"function","name":"bets","inputs":[{"name":"","type":"uint256","internalType":"uint256"}],"outputs":[{"name":"bettor","type":"address","internalType":"address"},{"name":"targetTimestamp","type":"uint256","internalType":"uint256"},{"name":"priceMin","type":"uint256","internalType":"uint256"},{"name":"priceMax","type":"uint256","internalType":"uint256"},{"name":"stake","type":"uint256","internalType":"uint256"},{"name":"qualityBps","type":"uint256","internalType":"uint256"},{"name":"weight","type":"uint256","internalType":"uint256"},{"name":"finalized","type":"bool","internalType":"bool"},{"name":"claimed","type":"bool","internalType":"bool"},{"name":"actualPrice","type":"uint256","internalType":"uint256"},{"name":"won","type":"bool","internalType":"bool"}],"stateMutability":"view"},{"type":"function","name":"bucketIndex","inputs":[{"name":"targetTs","type":"uint256","internalType":"uint256"}],"outputs":[{"name":"","type":"uint256","internalType":"uint256"}],"stateMutability":"view"},{"type":"function","name":"buckets","inputs":[{"name":"","type":"uint256","internalType":"uint256"}],"outputs":[{"name":"totalStaked","type":"uint256","internalType":"uint256"},{"name":"totalWeight","type":"uint256","internalType":"uint256"},{"name":"totalWinningWeight","type":"uint256","internalType":"uint256"},{"name":"nextProcessIndex","type":"uint256","internalType":"uint256"},{"name":"aggregationComplete","type":"bool","internalType":"bool"}],"stateMutability":"view"},{"type":"function","name":"claimBet","inputs":[{"name":"betId","type":"uint256","internalType":"uint256"}],"outputs":[],"stateMutability":"nonpayable"},{"type":"function","name":"emergencyWithdraw","inputs":[],"outputs":[],"stateMutability":"nonpayable"},{"type":"function","name":"getBatchInfo","inputs":[{"name":"bucket","type":"uint256","internalType":"uint256"}],"outputs":[{"name":"nextBatchStart","type":"uint256","internalType":"uint256"},{"name":"nextBatchEnd","type":"uint256","internalType":"uint256"},{"name":"remainingBets","type":"uint256","internalType":"uint256"},{"name":"canProcess","type":"bool","internalType":"bool"}],"stateMutability":"view"},{"type":"function","name":"getBet","inputs":[{"name":"betId","type":"uint256","internalType":"uint256"}],"outputs":[{"name":"","type":"tuple","internalType":"struct TorchPredictionMarket.Bet","components":[{"name":"bettor","type":"address","internalType":"address"},{"name":"targetTimestamp","type":"uint256","internalType":"uint256"},{"name":"priceMin","type":"uint256","internalType":"uint256"},{"name":"priceMax","type":"uint256","internalType":"uint256"},{"name":"stake","type":"uint256","internalType":"uint256"},{"name":"qualityBps","type":"uint256","internalType":"uint256"},{"name":"weight","type":"uint256","internalType":"uint256"},{"name":"finalized","type":"bool","internalType":"bool"},{"name":"claimed","type":"bool","internalType":"bool"},{"name":"actualPrice","type":"uint256","internalType":"uint256"},{"name":"won","type":"bool","internalType":"bool"}]}],"stateMutability":"view"},{"type":"function","name":"getBucketInfo","inputs":[{"name":"bucket","type":"uint256","internalType":"uint256"}],"outputs":[{"name":"totalBets","type":"uint256","internalType":"uint256"},{"name":"totalWinningWeight","type":"uint256","internalType":"uint256"},{"name":"nextProcessIndex","type":"uint256","internalType":"uint256"},{"name":"aggregationComplete","type":"bool","internalType":"bool"}],"stateMutability":"view"},{"type":"function","name":"getBucketStats","inputs":[{"name":"bucket","type":"uint256","internalType":"uint256"}],"outputs":[{"name":"totalStaked","type":"uint256","internalType":"uint256"},{"name":"totalWeight","type":"uint256","internalType":"uint256"},{"name":"price","type":"uint256","internalType":"uint256"}],"stateMutability":"view"},{"type":"function","name":"getPriceAtTimestamp","inputs":[{"name":"timestamp","type":"uint256","internalType":"uint256"}],"outputs":[{"name":"","type":"uint256","internalType":"uint256"}],"stateMutability":"view"},{"type":"function","name":"getSharpnessMultiplier","inputs":[{"name":"priceMin","type":"uint256","internalType":"uint256"},{"name":"priceMax","type":"uint256","internalType":"uint256"}],"outputs":[{"name":"","type":"uint256","internalType":"uint256"}],"stateMutability":"pure"},{"type":"function","name":"getStats","inputs":[],"outputs":[{"name":"totalBets","type":"uint256","internalType":"uint256"},{"name":"totalFees","type":"uint256","internalType":"uint256"},{"name":"contractBalance","type":"uint256","internalType":"uint256"}],"stateMutability":"view"},{"type":"function","name":"getTimeMultiplier","inputs":[{"name":"targetTimestamp","type":"uint256","internalType":"uint256"}],"outputs":[{"name":"","type":"uint256","internalType":"uint256"}],"stateMutability":"view"},{"type":"function","name":"nextBetId","inputs":[],"outputs":[{"name":"","type":"uint256","internalType":"uint256"}],"stateMutability":"view"},{"type":"function","name":"owner","inputs":[],"outputs":[{"name":"","type":"address","internalType":"address"}],"stateMutability":"view"},{"type":"function","name":"pause","inputs":[],"outputs":[],"stateMutability":"nonpayable"},{"type":"function","name":"paused","inputs":[],"outputs":[{"name":"","type":"bool","internalType":"bool"}],"stateMutability":"view"},{"type":"function","name":"placeBatchBets","inputs":[{"name":"targetTimestamps","type":"uint256[]","internalType":"uint256[]"},{"name":"priceMins","type":"uint256[]","internalType":"uint256[]"},{"name":"priceMaxs","type":"uint256[]","internalType":"uint256[]"}],"outputs":[{"name":"betIds","type":"uint256[]","internalType":"uint256[]"}],"stateMutability":"payable"},{"type":"function","name":"placeBet","inputs":[{"name":"targetTimestamp","type":"uint256","internalType":"uint256"},{"name":"priceMin","type":"uint256","internalType":"uint256"},{"name":"priceMax","type":"uint256","internalType":"uint256"}],"outputs":[{"name":"","type":"uint256","internalType":"uint256"}],"stateMutability":"payable"},{"type":"function","name":"pricesAtTimestamp","inputs":[{"name":"","type":"uint256","internalType":"uint256"}],"outputs":[{"name":"","type":"uint256","internalType":"uint256"}],"stateMutability":"view"},{"type":"function","name":"processBatch","inputs":[{"name":"bucket","type":"uint256","internalType":"uint256"}],"outputs":[{"name":"processedCount","type":"uint256","internalType":"uint256"},{"name":"winningWeight","type":"uint256","internalType":"uint256"}],"stateMutability":"nonpayable"},{"type":"function","name":"renounceOwnership","inputs":[],"outputs":[],"stateMutability":"nonpayable"},{"type":"function","name":"setPriceForTimestamp","inputs":[{"name":"timestamp","type":"uint256","internalType":"uint256"},{"name":"price","type":"uint256","internalType":"uint256"}],"outputs":[],"stateMutability":"nonpayable"},{"type":"function","name":"setPricesForTimestamps","inputs":[{"name":"timestamps","type":"uint256[]","internalType":"uint256[]"},{"name":"prices","type":"uint256[]","internalType":"uint256[]"}],"outputs":[],"stateMutability":"nonpayable"},{"type":"function","name":"simulatePlaceBet","inputs":[{"name":"targetTimestamp","type":"uint256","internalType":"uint256"},{"name":"priceMin","type":"uint256","internalType":"uint256"},{"name":"priceMax","type":"uint256","internalType":"uint256"},{"name":"stakeAmount","type":"uint256","internalType":"uint256"}],"outputs":[{"name":"","type":"tuple","internalType":"struct TorchPredictionMarket.BetSimulation","components":[{"name":"fee","type":"uint256","internalType":"uint256"},{"name":"stakeNet","type":"uint256","internalType":"uint256"},{"name":"sharpnessBps","type":"uint256","internalType":"uint256"},{"name":"timeBps","type":"uint256","internalType":"uint256"},{"name":"qualityBps","type":"uint256","internalType":"uint256"},{"name":"weight","type":"uint256","internalType":"uint256"},{"name":"bucket","type":"uint256","internalType":"uint256"},{"name":"isValid","type":"bool","internalType":"bool"},{"name":"errorMessage","type":"string","internalType":"string"}]}],"stateMutability":"view"},{"type":"function","name":"startTimestamp","inputs":[],"outputs":[{"name":"","type":"uint256","internalType":"uint256"}],"stateMutability":"view"},{"type":"function","name":"totalFeesCollected","inputs":[],"outputs":[{"name":"","type":"uint256","internalType":"uint256"}],"stateMutability":"view"},{"type":"function","name":"transferOwnership","inputs":[{"name":"newOwner","type":"address","internalType":"address"}],"outputs":[],"stateMutability":"nonpayable"},{"type":"function","name":"unpause","inputs":[],"outputs":[],"stateMutability":"nonpayable"},{"type":"function","name":"withdrawFees","inputs":[],"outputs":[],"stateMutability":"nonpayable"},{"type":"event","name":"AggregationCompleted","inputs":[{"name":"bucket","type":"uint256","indexed":true,"internalType":"uint256"},{"name":"totalWinningWeight","type":"uint256","indexed":false,"internalType":"uint256"}],"anonymous":false},{"type":"event","name":"BatchProcessed","inputs":[{"name":"bucket","type":"uint256","indexed":true,"internalType":"uint256"},{"name":"processedCount","type":"uint256","indexed":false,"internalType":"uint256"},{"name":"winningWeight","type":"uint256","indexed":false,"internalType":"uint256"}],"anonymous":false},{"type":"event","name":"BetClaimed","inputs":[{"name":"betId","type":"uint256","indexed":true,"internalType":"uint256"},{"name":"bettor","type":"address","indexed":true,"internalType":"address"},{"name":"payout","type":"uint256","indexed":false,"internalType":"uint256"}],"anonymous":false},{"type":"event","name":"BetFinalized","inputs":[{"name":"betId","type":"uint256","indexed":true,"internalType":"uint256"},{"name":"actualPrice","type":"uint256","indexed":false,"internalType":"uint256"},{"name":"won","type":"bool","indexed":false,"internalType":"bool"},{"name":"payout","type":"uint256","indexed":false,"internalType":"uint256"}],"anonymous":false},{"type":"event","name":"BetPlaced","inputs":[{"name":"betId","type":"uint256","indexed":true,"internalType":"uint256"},{"name":"bettor","type":"address","indexed":true,"internalType":"address"},{"name":"bucket","type":"uint256","indexed":false,"internalType":"uint256"},{"name":"stake","type":"uint256","indexed":false,"internalType":"uint256"},{"name":"priceMin","type":"uint256","indexed":false,"internalType":"uint256"},{"name":"priceMax","type":"uint256","indexed":false,"internalType":"uint256"},{"name":"targetTimestamp","type":"uint256","indexed":false,"internalType":"uint256"}],"anonymous":false},{"type":"event","name":"BucketPriceSet","inputs":[{"name":"bucket","type":"uint256","indexed":true,"internalType":"uint256"},{"name":"price","type":"uint256","indexed":false,"internalType":"uint256"}],"anonymous":false},{"type":"event","name":"FeeCollected","inputs":[{"name":"amount","type":"uint256","indexed":false,"internalType":"uint256"}],"anonymous":false},{"type":"event","name":"OwnershipTransferred","inputs":[{"name":"previousOwner","type":"address","indexed":true,"internalType":"address"},{"name":"newOwner","type":"address","indexed":true,"internalType":"address"}],"anonymous":false},{"type":"event","name":"Paused","inputs":[{"name":"account","type":"address","indexed":false,"internalType":"address"}],"anonymous":false},{"type":"event","name":"Unpaused","inputs":[{"name":"account","type":"address","indexed":false,"internalType":"address"}],"anonymous":false},{"type":"error","name":"EnforcedPause","inputs":[]},{"type":"error","name":"ExpectedPause","inputs":[]},{"type":"error","name":"OwnableInvalidOwner","inputs":[{"name":"owner","type":"address","internalType":"address"}]},{"type":"error","name":"OwnableUnauthorizedAccount","inputs":[{"name":"account","type":"address","internalType":"address"}]},{"type":"error","name":"ReentrancyGuardReentrantCall","inputs":[]}],"bytecode":{"object":"0x60a060405234801561001057600080fd5b506001600055338061003c57604051631e4fbdf760e01b81526000600482015260240160405180910390fd5b6100458161004f565b50426080526100a1565b600180546001600160a01b038381166001600160a01b0319831681179093556040519116919082907f8be0079c531659141344cd1fd0a4f28419497f9722a3daafe3b4186f6b6457e090600090a35050565b6080516129976100ca60003960008181610825015281816116df015261174901526129976000f3fe6080604052600436106102305760003560e01c80637ec174df1161012e578063c5860b53116100ab578063db2e21bc1161006f578063db2e21bc146107fe578063e6fd48bc14610813578063e71c969714610847578063f2fde38b1461085a578063f78ed1081461087a57600080fd5b8063c5860b5314610760578063c59d48471461078d578063c98517c5146107a6578063cb1c2b5c146107c3578063d07c2561146107de57600080fd5b80639568786c116100f25780639568786c1461068f5780639aca2792146106af5780639b51fb0d146106c5578063a5a150ff14610740578063bf333f2c1461043057600080fd5b80637ec174df146105a45780638456cb59146105d15780638a3e41cd146105e65780638aa34ae0146106065780638da5cb5b1461066757600080fd5b80634df86c43116101bc578063706cabd511610180578063706cabd5146104f1578063715018a614610538578063739830861461054d57806374f0314f1461056d5780637e8c5f141461058457600080fd5b80634df86c43146104455780635c975abb1461046557806360c6d8ae146104905780636309463b146104a65780636637e38c146104db57600080fd5b8063227f960411610203578063227f96041461030857806322af00fa1461031d5780633f4ba83a14610404578063476343ee1461041b57806349faa4d41461043057600080fd5b8063061e494f14610235578063083414761461026b5780630aadaac41461028b5780631a0058f5146102c6575b600080fd5b34801561024157600080fd5b506102556102503660046124d9565b61088f565b60405161026291906124f2565b60405180910390f35b61027e6102793660046125de565b6109a5565b6040516102629190612684565b34801561029757600080fd5b506102b86102a63660046124d9565b60009081526006602052604090205490565b604051908152602001610262565b3480156102d257600080fd5b506102e66102e13660046124d9565b610f43565b6040805194855260208501939093529183015215156060820152608001610262565b34801561031457600080fd5b506102b8601e81565b34801561032957600080fd5b506103a16103383660046124d9565b600460208190526000918252604090912080546001820154600283015460038401549484015460058501546006860154600787015460088801546009909801546001600160a01b03909716989597949693949293919260ff80831693610100909304811692168b565b604080516001600160a01b03909c168c5260208c019a909a52988a01979097526060890195909552608088019390935260a087019190915260c0860152151560e08501521515610100840152610120830152151561014082015261016001610262565b34801561041057600080fd5b50610419610fb6565b005b34801561042757600080fd5b50610419610fc8565b34801561043c57600080fd5b506102b8603281565b34801561045157600080fd5b506104196104603660046124d9565b611083565b34801561047157600080fd5b50600154600160a01b900460ff165b6040519015158152602001610262565b34801561049c57600080fd5b506102b860025481565b3480156104b257600080fd5b506104c66104c13660046124d9565b611356565b60408051928352602083019190915201610262565b3480156104e757600080fd5b506102b861271081565b3480156104fd57600080fd5b506102e661050c3660046124d9565b60009081526005602081905260409091208054600382015460048301549290930154909360ff90911690565b34801561054457600080fd5b50610419611627565b34801561055957600080fd5b506104196105683660046126c7565b611639565b34801561057957600080fd5b506102b86201518081565b34801561059057600080fd5b506102b861059f3660046124d9565b6116db565b3480156105b057600080fd5b506105c46105bf3660046126e9565b61177e565b6040516102629190612761565b3480156105dd57600080fd5b50610419611a60565b3480156105f257600080fd5b506104196106013660046127da565b611a70565b34801561061257600080fd5b5061064c6106213660046124d9565b6000818152600560209081526040808320600181015460029091015460069093529220549193909250565b60408051938452602084019290925290820152606001610262565b34801561067357600080fd5b506001546040516001600160a01b039091168152602001610262565b34801561069b57600080fd5b506102b86106aa3660046124d9565b611be9565b3480156106bb57600080fd5b506102b860035481565b3480156106d157600080fd5b506107166106e03660046124d9565b60056020819052600091825260409091206001810154600282015460038301546004840154939094015491939092909160ff1685565b6040805195865260208601949094529284019190915260608301521515608082015260a001610262565b34801561074c57600080fd5b5061048061075b3660046124d9565b611c95565b34801561076c57600080fd5b506102b861077b3660046124d9565b60066020526000908152604090205481565b34801561079957600080fd5b506003546002544761064c565b3480156107b257600080fd5b506102b868056bc75e2d6310000081565b3480156107cf57600080fd5b506102b8662386f26fc1000081565b3480156107ea57600080fd5b506102b86107f93660046126c7565b611d18565b34801561080a57600080fd5b50610419611de5565b34801561081f57600080fd5b506102b87f000000000000000000000000000000000000000000000000000000000000000081565b6102b861085536600461284b565b611e02565b34801561086657600080fd5b50610419610875366004612877565b61209f565b34801561088657600080fd5b506102b8600181565b6108fb60405180610160016040528060006001600160a01b03168152602001600081526020016000815260200160008152602001600081526020016000815260200160008152602001600015158152602001600015158152602001600081526020016000151581525090565b5060009081526004602081815260409283902083516101608101855281546001600160a01b0316815260018201549281019290925260028101549382019390935260038301546060820152908201546080820152600582015460a0820152600682015460c0820152600782015460ff808216151560e08401526101009182900481161515918301919091526008830154610120830152600990920154909116151561014082015290565b60606109af6120da565b6109b7612105565b85841480156109c557508382145b610a165760405162461bcd60e51b815260206004820152601860248201527f4172726179206c656e67746873206d757374206d61746368000000000000000060448201526064015b60405180910390fd5b85610a635760405162461bcd60e51b815260206004820152601b60248201527f4d75737420706c616365206174206c65617374206f6e652062657400000000006044820152606401610a0d565b600a861115610ab45760405162461bcd60e51b815260206004820152601960248201527f4d6178696d756d203130206265747320706572206261746368000000000000006044820152606401610a0d565b8567ffffffffffffffff811115610acd57610acd6128a7565b604051908082528060200260200182016040528015610af6578160200160208202803683370190505b5090506000805b87811015610d3957848482818110610b1757610b176128bd565b90506020020135878783818110610b3057610b306128bd565b9050602002013510610b7a5760405162461bcd60e51b8152602060048201526013602482015272496e76616c69642070726963652072616e676560681b6044820152606401610a0d565b6000878783818110610b8e57610b8e6128bd565b90506020020135118015610bba57506000858583818110610bb157610bb16128bd565b90506020020135115b610c005760405162461bcd60e51b8152602060048201526017602482015276507269636573206d75737420626520706f73697469766560481b6044820152606401610a0d565b42898983818110610c1357610c136128bd565b9050602002013511610c675760405162461bcd60e51b815260206004820152601d60248201527f43616e6e6f7420626574206f6e20706173742074696d657374616d70730000006044820152606401610a0d565b610c756201518060016128e9565b610c7f9042612900565b898983818110610c9157610c916128bd565b9050602002013510158015610cd55750610caf62015180601e6128e9565b610cb99042612900565b898983818110610ccb57610ccb6128bd565b9050602002013511155b610d165760405162461bcd60e51b8152602060048201526012602482015271496e76616c69642074696d652072616e676560701b6044820152606401610a0d565b6000610d228934612913565b9050610d2e8184612900565b925050600101610afd565b5080341015610d8a5760405162461bcd60e51b815260206004820152601b60248201527f496e73756666696369656e742076616c756520666f72206265747300000000006044820152606401610a0d565b60005b87811015610f2d576000610da18934612913565b90506000612710610db36032846128e9565b610dbd9190612913565b90506000610dcb8284612935565b90508160026000828254610ddf9190612900565b90915550506040518281527fc472cb3a7a659a876494d66b3063145f279701771d6150b9329c31611ed6405c9060200160405180910390a16000612710610e3d8e8e88818110610e3157610e316128bd565b90506020020135611be9565b610e778d8d89818110610e5257610e526128bd565b905060200201358c8c8a818110610e6b57610e6b6128bd565b90506020020135611d18565b610e8191906128e9565b610e8b9190612913565b90506000612710610e9c83856128e9565b610ea69190612913565b9050610eff338f8f89818110610ebe57610ebe6128bd565b905060200201358e8e8a818110610ed757610ed76128bd565b905060200201358d8d8b818110610ef057610ef06128bd565b9050602002013587878761212f565b888781518110610f1157610f116128bd565b6020908102919091010152505060019093019250610d8d915050565b5050610f396001600055565b9695505050505050565b600081815260056020526040812060048101548291829182919082610f69603283612900565b8354909150811115610f79575081545b8254600090610f89908490612935565b600585015490915060009060ff16158015610fa45750600082115b939a9299509097509195509350505050565b610fbe612398565b610fc66123c5565b565b610fd0612398565b6002805460009182905590610fed6001546001600160a01b031690565b6001600160a01b03168260405160006040518083038185875af1925050503d8060008114611037576040519150601f19603f3d011682016040523d82523d6000602084013e61103c565b606091505b505090508061107f5760405162461bcd60e51b815260206004820152600f60248201526e151c985b9cd9995c8819985a5b1959608a1b6044820152606401610a0d565b5050565b61108b612105565b600081815260046020526040902080546001600160a01b031633146110e25760405162461bcd60e51b815260206004820152600d60248201526c2737ba103132ba1037bbb732b960991b6044820152606401610a0d565b600781015460ff1661112a5760405162461bcd60e51b815260206004820152601160248201527010995d081b9bdd08199a5b985b1a5e9959607a1b6044820152606401610a0d565b6007810154610100900460ff16156111765760405162461bcd60e51b815260206004820152600f60248201526e105b1c9958591e4818db185a5b5959608a1b6044820152606401610a0d565b600061118582600101546116db565b6000818152600560208190526040909120908101549192509060ff166111ed5760405162461bcd60e51b815260206004820152601860248201527f4167677265676174696f6e206e6f7420636f6d706c65746500000000000000006044820152606401610a0d565b60078301805461ff001916610100179055600983015460ff161561130d5760008082600301541161121f576000611242565b81600301548260010154856006015461123891906128e9565b6112429190612913565b604051909150600090339083908381818185875af1925050503d8060008114611287576040519150601f19603f3d011682016040523d82523d6000602084013e61128c565b606091505b50509050806112cf5760405162461bcd60e51b815260206004820152600f60248201526e151c985b9cd9995c8819985a5b1959608a1b6044820152606401610a0d565b604051828152339087907fad65ef4ba28f4ce1aaee7e8f86645eb4ce0ddc8b6c8fa2821564a94dbd2485fe9060200160405180910390a35050611346565b60405160008152339085907fad65ef4ba28f4ce1aaee7e8f86645eb4ce0ddc8b6c8fa2821564a94dbd2485fe9060200160405180910390a35b5050506113536001600055565b50565b600081815260056020819052604082209081015482919060ff16156113bd5760405162461bcd60e51b815260206004820152601c60248201527f4167677265676174696f6e20616c726561647920636f6d706c657465000000006044820152606401610a0d565b600481015460006113cf603283612900565b83549091508111156113df575081545b825482106114445760058301805460ff19166001179055600383015460405187917fc8076cf096b541fb33d9acbd6bfd0ef234ae377710816fd316e2964d795b7afb9161142e91815260200190565b60405180910390a2506000958695509350505050565b600080835b83811015611567576000866000018281548110611468576114686128bd565b60009182526020808320909101548083526004909152604090912060078101549192509060ff1661155d576001810154600090815260066020526040902054806114f45760405162461bcd60e51b815260206004820152601b60248201527f5072696365206e6f742073657420666f722074696d657374616d7000000000006044820152606401610a0d565b60078201805460ff191660011790556008820181905560028201548110801590611522575081600301548111155b60098301805460ff1916911515918217905560ff161561154e57600682015461154b9087612900565b95505b8461155881612948565b955050505b5050600101611449565b508185600301600082825461157c9190612900565b909155505060048501839055845483106115e05760058501805460ff19166001179055600385015460405189917fc8076cf096b541fb33d9acbd6bfd0ef234ae377710816fd316e2964d795b7afb916115d791815260200190565b60405180910390a25b604080518281526020810184905289917fd03f99f321df6e5a7f705a548f7e6b4880d02286dda4ffbbf00ff5353381fa89910160405180910390a297909650945050505050565b61162f612398565b610fc6600061241a565b611641612398565b6000811161168a5760405162461bcd60e51b81526020600482015260166024820152755072696365206d75737420626520706f73697469766560501b6044820152606401610a0d565b600082815260066020526040908190208290555182907f8fa8f97aaf26189ac469c7662e87dbceda87bd9ade91a749b64fc4c14ad98d66906116cf9084815260200190565b60405180910390a25050565b60007f00000000000000000000000000000000000000000000000000000000000000008210156117405760405162461bcd60e51b815260206004820152601060248201526f135d5cdd081899480f8f481cdd185c9d60821b6044820152606401610a0d565b6201518061176e7f000000000000000000000000000000000000000000000000000000000000000084612935565b6117789190612913565b92915050565b6117cf60405180610120016040528060008152602001600081526020016000815260200160008152602001600081526020016000815260200160008152602001600015158152602001606081525090565b42851161185c57604051806101200160405280600081526020016000815260200160008152602001600081526020016000815260200160008152602001600081526020016000151581526020016040518060400160405280601881526020017f4d757374206265206675747572652074696d657374616d7000000000000000008152508152509050611a58565b8284106118df576040518061012001604052806000815260200160008152602001600081526020016000815260200160008152602001600081526020016000815260200160001515815260200160405180604001604052806013815260200172496e76616c69642070726963652072616e676560681b8152508152509050611a58565b662386f26fc100008210806118fc575068056bc75e2d6310000082115b1561197e576040518061012001604052806000815260200160008152602001600081526020016000815260200160008152602001600081526020016000815260200160001515815260200160405180604001604052806014815260200173125b9d985b1a59081cdd185ad948185b5bdd5b9d60621b8152508152509050611a58565b600061271061198e6032856128e9565b6119989190612913565b905060006119a68285612935565b905060006119b48787611d18565b905060006119c189611be9565b905060006127106119d283856128e9565b6119dc9190612913565b905060006127106119ed83876128e9565b6119f79190612913565b90506000611a048c6116db565b60408051610120810182529889526020808a019890985288810196909652606088019490945250608086019190915260a085015260c0840152600160e0840152805191820190526000815261010082015290505b949350505050565b611a68612398565b610fc661246c565b611a78612398565b828114611abc5760405162461bcd60e51b8152602060048201526012602482015271098cadccee8d0e640daeae6e840dac2e8c6d60731b6044820152606401610a0d565b60005b83811015611be2576000838383818110611adb57611adb6128bd565b9050602002013511611b285760405162461bcd60e51b81526020600482015260166024820152755072696365206d75737420626520706f73697469766560501b6044820152606401610a0d565b828282818110611b3a57611b3a6128bd565b9050602002013560066000878785818110611b5757611b576128bd565b90506020020135815260200190815260200160002081905550848482818110611b8257611b826128bd565b905060200201357f8fa8f97aaf26189ac469c7662e87dbceda87bd9ade91a749b64fc4c14ad98d66848484818110611bbc57611bbc6128bd565b90506020020135604051611bd291815260200190565b60405180910390a2600101611abf565b5050505050565b600080611bf64284612935565b9050611c066201518060046128e9565b8110611c165750614e2092915050565b611c246201518060026128e9565b8110611c345750613a9892915050565b611c426201518060016128e9565b8110611c52575061271092915050565b6170808110611c65575061138892915050565b611c208110611c785750610bb892915050565b610e108110611c8b57506103e892915050565b506103e892915050565b6000818152600560205260408120815b8154811015611d0e576000826000018281548110611cc557611cc56128bd565b6000918252602080832090910154808352600482526040808420600181015485526006909352832054909350909103611d045750600095945050505050565b5050600101611ca5565b5060019392505050565b600080611d258484612935565b905060006002611d358587612900565b611d3f9190612913565b90506000808211611d51576000611d68565b81611d5e612710856128e9565b611d689190612913565b9050610fa0811115611d81576103e89350505050611778565b6107d08110611d9757610bb89350505050611778565b6103e88110611dad576113889350505050611778565b6101f48110611dc3576127109350505050611778565b60c88110611dd857613a989350505050611778565b50614e2095945050505050565b611ded612398565b476000610fed6001546001600160a01b031690565b60008381611e146201518060016128e9565b611e1e9042612900565b90506000611e3062015180601e6128e9565b611e3a9042612900565b905081831015611e7e5760405162461bcd60e51b815260206004820152600f60248201526e2a30b933b2ba103a37b79039b7b7b760891b6044820152606401610a0d565b80831115611ebf5760405162461bcd60e51b815260206004820152600e60248201526d2a30b933b2ba103a37b7903330b960911b6044820152606401610a0d565b611ec76120da565b611ecf612105565b848610611f145760405162461bcd60e51b8152602060048201526013602482015272496e76616c69642070726963652072616e676560681b6044820152606401610a0d565b600086118015611f245750600085115b611f6a5760405162461bcd60e51b8152602060048201526017602482015276507269636573206d75737420626520706f73697469766560481b6044820152606401610a0d565b428711611fb95760405162461bcd60e51b815260206004820152601d60248201527f43616e6e6f7420626574206f6e20706173742074696d657374616d70730000006044820152606401610a0d565b6000612710611fc96032346128e9565b611fd39190612913565b90506000611fe18234612935565b90508160026000828254611ff59190612900565b90915550506040518281527fc472cb3a7a659a876494d66b3063145f279701771d6150b9329c31611ed6405c9060200160405180910390a1600061271061203b8b611be9565b6120458b8b611d18565b61204f91906128e9565b6120599190612913565b9050600061271061206a83856128e9565b6120749190612913565b9050612085338c8c8c87878761212f565b9750505050506120956001600055565b5050509392505050565b6120a7612398565b6001600160a01b0381166120d157604051631e4fbdf760e01b815260006004820152602401610a0d565b6113538161241a565b600154600160a01b900460ff1615610fc65760405163d93c066560e01b815260040160405180910390fd5b60026000540361212857604051633ee5aeb560e01b815260040160405180910390fd5b6002600055565b600380546000918291908261214383612948565b9190505590506000612154896116db565b90506040518061016001604052808b6001600160a01b031681526020018a815260200189815260200188815260200187815260200186815260200185815260200160001515815260200160001515815260200160008152602001600015158152506004600084815260200190815260200160002060008201518160000160006101000a8154816001600160a01b0302191690836001600160a01b031602179055506020820151816001015560408201518160020155606082015181600301556080820151816004015560a0820151816005015560c0820151816006015560e08201518160070160006101000a81548160ff0219169083151502179055506101008201518160070160016101000a81548160ff02191690831515021790555061012082015181600801556101408201518160090160006101000a81548160ff02191690831515021790555090505060056000828152602001908152602001600020600001829080600181540180825580915050600190039060005260206000200160009091909190915055856005600083815260200190815260200160002060010160008282546123049190612900565b90915550506000818152600560205260408120600201805486929061232a908490612900565b9091555050604080518281526020810188905290810189905260608101889052608081018a90526001600160a01b038b169083907f8d90e2d49bbaba150dc98acd6247789ec6b22ffccd431ff70f42f56136ad8d329060a00160405180910390a35098975050505050505050565b6001546001600160a01b03163314610fc65760405163118cdaa760e01b8152336004820152602401610a0d565b6123cd6124af565b6001805460ff60a01b191690557f5db9ee0a495bf2e6ff9c91a7834c1ba4fdd244a5e8aa4e537bd38aeae4b073aa335b6040516001600160a01b03909116815260200160405180910390a1565b600180546001600160a01b038381166001600160a01b0319831681179093556040519116919082907f8be0079c531659141344cd1fd0a4f28419497f9722a3daafe3b4186f6b6457e090600090a35050565b6124746120da565b6001805460ff60a01b1916600160a01b1790557f62e78cea01bee320cd4e420270b5ea74000d11b0c9f74754ebdbfc544b05a2586123fd3390565b600154600160a01b900460ff16610fc657604051638dfc202b60e01b815260040160405180910390fd5b6000602082840312156124eb57600080fd5b5035919050565b81516001600160a01b0316815261016081016020830151602083015260408301516040830152606083015160608301526080830151608083015260a083015160a083015260c083015160c083015260e083015161255360e084018215159052565b5061010083015161256961010084018215159052565b5061012083015161012083015261014083015161258b61014084018215159052565b5092915050565b60008083601f8401126125a457600080fd5b50813567ffffffffffffffff8111156125bc57600080fd5b6020830191508360208260051b85010111156125d757600080fd5b9250929050565b600080600080600080606087890312156125f757600080fd5b863567ffffffffffffffff81111561260e57600080fd5b61261a89828a01612592565b909750955050602087013567ffffffffffffffff81111561263a57600080fd5b61264689828a01612592565b909550935050604087013567ffffffffffffffff81111561266657600080fd5b61267289828a01612592565b979a9699509497509295939492505050565b602080825282518282018190526000918401906040840190835b818110156126bc57835183526020938401939092019160010161269e565b509095945050505050565b600080604083850312156126da57600080fd5b50508035926020909101359150565b600080600080608085870312156126ff57600080fd5b5050823594602084013594506040840135936060013592509050565b6000815180845260005b8181101561274157602081850181015186830182015201612725565b506000602082860101526020601f19601f83011685010191505092915050565b6020815281516020820152602082015160408201526040820151606082015260608201516080820152608082015160a082015260a082015160c082015260c082015160e0820152600060e08301516127be61010084018215159052565b5061010083015161012080840152611a5861014084018261271b565b600080600080604085870312156127f057600080fd5b843567ffffffffffffffff81111561280757600080fd5b61281387828801612592565b909550935050602085013567ffffffffffffffff81111561283357600080fd5b61283f87828801612592565b95989497509550505050565b60008060006060848603121561286057600080fd5b505081359360208301359350604090920135919050565b60006020828403121561288957600080fd5b81356001600160a01b03811681146128a057600080fd5b9392505050565b634e487b7160e01b600052604160045260246000fd5b634e487b7160e01b600052603260045260246000fd5b634e487b7160e01b600052601160045260246000fd5b8082028115828204841417611778576117786128d3565b80820180821115611778576117786128d3565b60008261293057634e487b7160e01b600052601260045260246000fd5b500490565b81810381811115611778576117786128d3565b60006001820161295a5761295a6128d3565b506001019056fea2646970667358221220214858904ce9ff1534aa807b5d067a3251b8b200d8af5c2cbfbc05b2b488360564736f6c634300081c0033","linkReferences":{}},"methodIdentifiers":{"BATCH_SIZE()":"49faa4d4","BPS_DENOM()":"6637e38c","FEE_BPS()":"bf333f2c","MAX_DAYS_AHEAD()":"227f9604","MAX_STAKE()":"c98517c5","MIN_DAYS_AHEAD()":"f78ed108","MIN_STAKE()":"cb1c2b5c","SECONDS_PER_DAY()":"74f0314f","arePricesSetForBucket(uint256)":"a5a150ff","bets(uint256)":"22af00fa","bucketIndex(uint256)":"7e8c5f14","buckets(uint256)":"9b51fb0d","claimBet(uint256)":"4df86c43","emergencyWithdraw()":"db2e21bc","getBatchInfo(uint256)":"1a0058f5","getBet(uint256)":"061e494f","getBucketInfo(uint256)":"706cabd5","getBucketStats(uint256)":"8aa34ae0","getPriceAtTimestamp(uint256)":"0aadaac4","getSharpnessMultiplier(uint256,uint256)":"d07c2561","getStats()":"c59d4847","getTimeMultiplier(uint256)":"9568786c","nextBetId()":"9aca2792","owner()":"8da5cb5b","pause()":"8456cb59","paused()":"5c975abb","placeBatchBets(uint256[],uint256[],uint256[])":"08341476","placeBet(uint256,uint256,uint256)":"e71c9697","pricesAtTimestamp(uint256)":"c5860b53","processBatch(uint256)":"6309463b","renounceOwnership()":"715018a6","setPriceForTimestamp(uint256,uint256)":"73983086","setPricesForTimestamps(uint256[],uint256[])":"8a3e41cd","simulatePlaceBet(uint256,uint256,uint256,uint256)":"7ec174df","startTimestamp()":"e6fd48bc","totalFeesCollected()":"60c6d8ae","transferOwnership(address)":"f2fde38b","unpause()":"3f4ba83a","withdrawFees()":"476343ee"},"id":26}